{
  "address": "0xa2a88Ff50200a1d3bC8555fd85C3cFFd8D9ee1f9",
  "abi": [
    {
      "inputs": [
        {
          "internalType": "address",
          "name": "vrfCoordinatorAddress",
          "type": "address"
        },
        {
          "internalType": "uint256",
          "name": "_entranceFee",
          "type": "uint256"
        },
        {
          "internalType": "bytes32",
          "name": "_gasLane",
          "type": "bytes32"
        },
        {
          "internalType": "uint64",
          "name": "_subscriptionId",
          "type": "uint64"
        },
        {
          "internalType": "uint32",
          "name": "_callbackGasLimit",
          "type": "uint32"
        },
        {
          "internalType": "uint256",
          "name": "_interval",
          "type": "uint256"
        },
        {
          "internalType": "uint256",
          "name": "_fee",
          "type": "uint256"
        }
      ],
      "stateMutability": "nonpayable",
      "type": "constructor"
    },
    {
      "inputs": [
        {
          "internalType": "address",
          "name": "have",
          "type": "address"
        },
        {
          "internalType": "address",
          "name": "want",
          "type": "address"
        }
      ],
      "name": "OnlyCoordinatorCanFulfill",
      "type": "error"
    },
    {
      "inputs": [],
      "name": "Raffle__NotEnoughEthToEnter",
      "type": "error"
    },
    {
      "inputs": [],
      "name": "Raffle__NotOpen",
      "type": "error"
    },
    {
      "inputs": [],
      "name": "Raffle__TransferFailed",
      "type": "error"
    },
    {
      "inputs": [
        {
          "internalType": "uint256",
          "name": "currentBalance",
          "type": "uint256"
        },
        {
          "internalType": "uint256",
          "name": "numberOfPlayers",
          "type": "uint256"
        },
        {
          "internalType": "uint256",
          "name": "state",
          "type": "uint256"
        }
      ],
      "name": "Raffle__UpkeepNotNeeded",
      "type": "error"
    },
    {
      "anonymous": false,
      "inputs": [
        {
          "indexed": true,
          "internalType": "address",
          "name": "player",
          "type": "address"
        }
      ],
      "name": "RaffleEnter",
      "type": "event"
    },
    {
      "anonymous": false,
      "inputs": [
        {
          "indexed": true,
          "internalType": "uint256",
          "name": "requestId",
          "type": "uint256"
        }
      ],
      "name": "RequestedRaffleWinner",
      "type": "event"
    },
    {
      "anonymous": false,
      "inputs": [
        {
          "indexed": true,
          "internalType": "address",
          "name": "winner",
          "type": "address"
        }
      ],
      "name": "WinnerPicked",
      "type": "event"
    },
    {
      "inputs": [
        {
          "internalType": "bytes",
          "name": "",
          "type": "bytes"
        }
      ],
      "name": "checkUpkeep",
      "outputs": [
        {
          "internalType": "bool",
          "name": "upkeepNeeded",
          "type": "bool"
        },
        {
          "internalType": "bytes",
          "name": "",
          "type": "bytes"
        }
      ],
      "stateMutability": "nonpayable",
      "type": "function"
    },
    {
      "inputs": [],
      "name": "enterRaffle",
      "outputs": [],
      "stateMutability": "payable",
      "type": "function"
    },
    {
      "inputs": [],
      "name": "getEntranceFee",
      "outputs": [
        {
          "internalType": "uint256",
          "name": "",
          "type": "uint256"
        }
      ],
      "stateMutability": "view",
      "type": "function"
    },
    {
      "inputs": [],
      "name": "getInterval",
      "outputs": [
        {
          "internalType": "uint256",
          "name": "",
          "type": "uint256"
        }
      ],
      "stateMutability": "view",
      "type": "function"
    },
    {
      "inputs": [],
      "name": "getLatestTimestamp",
      "outputs": [
        {
          "internalType": "uint256",
          "name": "",
          "type": "uint256"
        }
      ],
      "stateMutability": "view",
      "type": "function"
    },
    {
      "inputs": [],
      "name": "getNumWords",
      "outputs": [
        {
          "internalType": "uint256",
          "name": "",
          "type": "uint256"
        }
      ],
      "stateMutability": "pure",
      "type": "function"
    },
    {
      "inputs": [],
      "name": "getNumberOfPlayers",
      "outputs": [
        {
          "internalType": "uint256",
          "name": "",
          "type": "uint256"
        }
      ],
      "stateMutability": "view",
      "type": "function"
    },
    {
      "inputs": [
        {
          "internalType": "uint256",
          "name": "index",
          "type": "uint256"
        }
      ],
      "name": "getPlayer",
      "outputs": [
        {
          "internalType": "address",
          "name": "",
          "type": "address"
        }
      ],
      "stateMutability": "view",
      "type": "function"
    },
    {
      "inputs": [],
      "name": "getRaffleState",
      "outputs": [
        {
          "internalType": "enum Raffle.State",
          "name": "",
          "type": "uint8"
        }
      ],
      "stateMutability": "view",
      "type": "function"
    },
    {
      "inputs": [],
      "name": "getRecentWinner",
      "outputs": [
        {
          "internalType": "address",
          "name": "",
          "type": "address"
        }
      ],
      "stateMutability": "view",
      "type": "function"
    },
    {
      "inputs": [],
      "name": "getRequestConfirmations",
      "outputs": [
        {
          "internalType": "uint256",
          "name": "",
          "type": "uint256"
        }
      ],
      "stateMutability": "pure",
      "type": "function"
    },
    {
      "inputs": [
        {
          "internalType": "bytes",
          "name": "",
          "type": "bytes"
        }
      ],
      "name": "performUpkeep",
      "outputs": [],
      "stateMutability": "nonpayable",
      "type": "function"
    },
    {
      "inputs": [
        {
          "internalType": "uint256",
          "name": "requestId",
          "type": "uint256"
        },
        {
          "internalType": "uint256[]",
          "name": "randomWords",
          "type": "uint256[]"
        }
      ],
      "name": "rawFulfillRandomWords",
      "outputs": [],
      "stateMutability": "nonpayable",
      "type": "function"
    }
  ],
  "transactionHash": "0x644e43e5195ec928e7a0dc5bd5ae76023dbfa4f0dff8b1848601018faa7fe032",
  "args": [
    "0x8103B0A8A00be2DDC778e6e7eaa21791Cd364625",
    "10000000000000000",
    "0x474e34a077df58807dbe9c96d3c009b23b3c6d0cce433e59bbf5b34f823bc56c",
    "3092",
    "500000",
    30,
    10
  ],
  "numDeployments": 2,
  "solcInputHash": "a6f52c9c6a1fa5d3116d828b899b2c05",
  "bytecode": "0x6101a06040523480156200001257600080fd5b5060405162001a0538038062001a058339818101604052810190620000389190620002d3565b868073ffffffffffffffffffffffffffffffffffffffff1660808173ffffffffffffffffffffffffffffffffffffffff1681525050508560a081815250508673ffffffffffffffffffffffffffffffffffffffff1660c08173ffffffffffffffffffffffffffffffffffffffff16815250508460e081815250508367ffffffffffffffff166101008167ffffffffffffffff16815250508263ffffffff166101208163ffffffff16815250506000600160146101000a81548160ff021916908360018111156200010d576200010c62000386565b5b0217905550426002819055508161014081815250508061016081815250503373ffffffffffffffffffffffffffffffffffffffff166101808173ffffffffffffffffffffffffffffffffffffffff168152505050505050505050620003b5565b600080fd5b600073ffffffffffffffffffffffffffffffffffffffff82169050919050565b60006200019f8262000172565b9050919050565b620001b18162000192565b8114620001bd57600080fd5b50565b600081519050620001d181620001a6565b92915050565b6000819050919050565b620001ec81620001d7565b8114620001f857600080fd5b50565b6000815190506200020c81620001e1565b92915050565b6000819050919050565b620002278162000212565b81146200023357600080fd5b50565b60008151905062000247816200021c565b92915050565b600067ffffffffffffffff82169050919050565b6200026c816200024d565b81146200027857600080fd5b50565b6000815190506200028c8162000261565b92915050565b600063ffffffff82169050919050565b620002ad8162000292565b8114620002b957600080fd5b50565b600081519050620002cd81620002a2565b92915050565b600080600080600080600060e0888a031215620002f557620002f46200016d565b5b6000620003058a828b01620001c0565b9750506020620003188a828b01620001fb565b96505060406200032b8a828b0162000236565b95505060606200033e8a828b016200027b565b9450506080620003518a828b01620002bc565b93505060a0620003648a828b01620001fb565b92505060c0620003778a828b01620001fb565b91505092959891949750929550565b7f4e487b7100000000000000000000000000000000000000000000000000000000600052602160045260246000fd5b60805160a05160c05160e05161010051610120516101405161016051610180516115ca6200043b6000396000610b0001526000610bd90152600081816107d80152610869015260006106990152600061067601526000610655015260006106190152600081816102fa01526103f7015260008181610337015261038b01526115ca6000f3fe6080604052600436106100c25760003560e01c806353a2c19a1161007f57806391ad27b41161005957806391ad27b414610238578063e55ae4e814610263578063f43b52cb146102a0578063fd6673f5146102cb576100c2565b806353a2c19a146101a45780635f1b0fd8146101cf5780636e04ff0d146101fa576100c2565b806309bc33a7146100c7578063115cbaf5146100f25780631fe543e31461011d5780632cfcc539146101465780634585e33b14610150578063473f1ddc14610179575b600080fd5b3480156100d357600080fd5b506100dc6102f6565b6040516100e99190610ce1565b60405180910390f35b3480156100fe57600080fd5b5061010761031e565b6040516101149190610d73565b60405180910390f35b34801561012957600080fd5b50610144600480360381019061013f9190610f27565b610335565b005b61014e6103f5565b005b34801561015c57600080fd5b5061017760048036038101906101729190610fde565b610564565b005b34801561018557600080fd5b5061018e61074e565b60405161019b919061106c565b60405180910390f35b3480156101b057600080fd5b506101b9610778565b6040516101c69190610ce1565b60405180910390f35b3480156101db57600080fd5b506101e4610787565b6040516101f19190610ce1565b60405180910390f35b34801561020657600080fd5b50610221600480360381019061021c919061113c565b610794565b60405161022f92919061121f565b60405180910390f35b34801561024457600080fd5b5061024d610865565b60405161025a9190610ce1565b60405180910390f35b34801561026f57600080fd5b5061028a6004803603810190610285919061124f565b61088d565b604051610297919061106c565b60405180910390f35b3480156102ac57600080fd5b506102b56108d4565b6040516102c29190610ce1565b60405180910390f35b3480156102d757600080fd5b506102e06108de565b6040516102ed9190610ce1565b60405180910390f35b60007f0000000000000000000000000000000000000000000000000000000000000000905090565b6000600160149054906101000a900460ff16905090565b7f000000000000000000000000000000000000000000000000000000000000000073ffffffffffffffffffffffffffffffffffffffff163373ffffffffffffffffffffffffffffffffffffffff16146103e757337f00000000000000000000000000000000000000000000000000000000000000006040517f1cf993f40000000000000000000000000000000000000000000000000000000081526004016103de92919061127c565b60405180910390fd5b6103f182826108ea565b5050565b7f000000000000000000000000000000000000000000000000000000000000000034101561044f576040517fd2390ce400000000000000000000000000000000000000000000000000000000815260040160405180910390fd5b6000600181111561046357610462610cfc565b5b600160149054906101000a900460ff16600181111561048557610484610cfc565b5b146104bc576040517f1425571c00000000000000000000000000000000000000000000000000000000815260040160405180910390fd5b6000339080600181540180825580915050600190039060005260206000200160009091909190916101000a81548173ffffffffffffffffffffffffffffffffffffffff021916908373ffffffffffffffffffffffffffffffffffffffff1602179055503373ffffffffffffffffffffffffffffffffffffffff167f0805e1d667bddb8a95f0f09880cf94f403fb596ce79928d9f29b74203ba284d460405160405180910390a2565b600061057e60405180602001604052806000815250610794565b509050806105ed5747600080549050600160149054906101000a900460ff1660018111156105af576105ae610cfc565b5b6040517f584327aa0000000000000000000000000000000000000000000000000000000081526004016105e4939291906112a5565b60405180910390fd5b60018060146101000a81548160ff0219169083600181111561061257610611610cfc565b5b02179055507f000000000000000000000000000000000000000000000000000000000000000073ffffffffffffffffffffffffffffffffffffffff16635d3b1d307f00000000000000000000000000000000000000000000000000000000000000007f000000000000000000000000000000000000000000000000000000000000000060037f000000000000000000000000000000000000000000000000000000000000000060016040518663ffffffff1660e01b81526004016106da959493929190611354565b6020604051808303816000875af11580156106f9573d6000803e3d6000fd5b505050506040513d601f19601f8201168201806040525081019061071d91906113bc565b7fcd6e45c8998311cab7e9d4385596cac867e20a0587194b954fa3a731c93ce78b60405160405180910390a2505050565b6000600160009054906101000a900473ffffffffffffffffffffffffffffffffffffffff16905090565b6000600163ffffffff16905090565b6000600361ffff16905090565b60006060600060018111156107ac576107ab610cfc565b5b600160149054906101000a900460ff1660018111156107ce576107cd610cfc565b5b14801561080757507f0000000000000000000000000000000000000000000000000000000000000000600254426108059190611418565b115b8015610817575060008080549050115b80156108235750600047115b9150816040518060400160405280600381526020017f307830000000000000000000000000000000000000000000000000000000000081525091509150915091565b60007f0000000000000000000000000000000000000000000000000000000000000000905090565b60008082815481106108a2576108a161144c565b5b9060005260206000200160009054906101000a900473ffffffffffffffffffffffffffffffffffffffff169050919050565b6000600254905090565b60008080549050905090565b60008080549050826000815181106109055761090461144c565b5b602002602001015161091791906114aa565b90506000818154811061092d5761092c61144c565b5b9060005260206000200160009054906101000a900473ffffffffffffffffffffffffffffffffffffffff16600160006101000a81548173ffffffffffffffffffffffffffffffffffffffff021916908373ffffffffffffffffffffffffffffffffffffffff160217905550600067ffffffffffffffff8111156109b3576109b2610de4565b5b6040519080825280602002602001820160405280156109e15781602001602082028036833780820191505090505b50600090805190602001906109f7929190610c21565b50426002819055506000600160146101000a81548160ff02191690836001811115610a2557610a24610cfc565b5b0217905550600080610a35610bd2565b915091506000600160009054906101000a900473ffffffffffffffffffffffffffffffffffffffff1673ffffffffffffffffffffffffffffffffffffffff1683604051610a819061150c565b60006040518083038185875af1925050503d8060008114610abe576040519150601f19603f3d011682016040523d82523d6000602084013e610ac3565b606091505b5050905080610afe576040517fa1d04b3900000000000000000000000000000000000000000000000000000000815260040160405180910390fd5b7f000000000000000000000000000000000000000000000000000000000000000073ffffffffffffffffffffffffffffffffffffffff166108fc839081150290604051600060405180830381858888f19350505050158015610b64573d6000803e3d6000fd5b50600160009054906101000a900473ffffffffffffffffffffffffffffffffffffffff1673ffffffffffffffffffffffffffffffffffffffff167f5b690ec4a06fe979403046eaeea5b3ce38524683c3001f662c8b5a829632f7df60405160405180910390a2505050505050565b60008060647f000000000000000000000000000000000000000000000000000000000000000047610c039190611521565b610c0d9190611563565b90508047610c1b9190611418565b91509091565b828054828255906000526020600020908101928215610c9a579160200282015b82811115610c995782518260006101000a81548173ffffffffffffffffffffffffffffffffffffffff021916908373ffffffffffffffffffffffffffffffffffffffff16021790555091602001919060010190610c41565b5b509050610ca79190610cab565b5090565b5b80821115610cc4576000816000905550600101610cac565b5090565b6000819050919050565b610cdb81610cc8565b82525050565b6000602082019050610cf66000830184610cd2565b92915050565b7f4e487b7100000000000000000000000000000000000000000000000000000000600052602160045260246000fd5b60028110610d3c57610d3b610cfc565b5b50565b6000819050610d4d82610d2b565b919050565b6000610d5d82610d3f565b9050919050565b610d6d81610d52565b82525050565b6000602082019050610d886000830184610d64565b92915050565b6000604051905090565b600080fd5b600080fd5b610dab81610cc8565b8114610db657600080fd5b50565b600081359050610dc881610da2565b92915050565b600080fd5b6000601f19601f8301169050919050565b7f4e487b7100000000000000000000000000000000000000000000000000000000600052604160045260246000fd5b610e1c82610dd3565b810181811067ffffffffffffffff82111715610e3b57610e3a610de4565b5b80604052505050565b6000610e4e610d8e565b9050610e5a8282610e13565b919050565b600067ffffffffffffffff821115610e7a57610e79610de4565b5b602082029050602081019050919050565b600080fd5b6000610ea3610e9e84610e5f565b610e44565b90508083825260208201905060208402830185811115610ec657610ec5610e8b565b5b835b81811015610eef5780610edb8882610db9565b845260208401935050602081019050610ec8565b5050509392505050565b600082601f830112610f0e57610f0d610dce565b5b8135610f1e848260208601610e90565b91505092915050565b60008060408385031215610f3e57610f3d610d98565b5b6000610f4c85828601610db9565b925050602083013567ffffffffffffffff811115610f6d57610f6c610d9d565b5b610f7985828601610ef9565b9150509250929050565b600080fd5b60008083601f840112610f9e57610f9d610dce565b5b8235905067ffffffffffffffff811115610fbb57610fba610f83565b5b602083019150836001820283011115610fd757610fd6610e8b565b5b9250929050565b60008060208385031215610ff557610ff4610d98565b5b600083013567ffffffffffffffff81111561101357611012610d9d565b5b61101f85828601610f88565b92509250509250929050565b600073ffffffffffffffffffffffffffffffffffffffff82169050919050565b60006110568261102b565b9050919050565b6110668161104b565b82525050565b6000602082019050611081600083018461105d565b92915050565b600080fd5b600067ffffffffffffffff8211156110a7576110a6610de4565b5b6110b082610dd3565b9050602081019050919050565b82818337600083830152505050565b60006110df6110da8461108c565b610e44565b9050828152602081018484840111156110fb576110fa611087565b5b6111068482856110bd565b509392505050565b600082601f83011261112357611122610dce565b5b81356111338482602086016110cc565b91505092915050565b60006020828403121561115257611151610d98565b5b600082013567ffffffffffffffff8111156111705761116f610d9d565b5b61117c8482850161110e565b91505092915050565b60008115159050919050565b61119a81611185565b82525050565b600081519050919050565b600082825260208201905092915050565b60005b838110156111da5780820151818401526020810190506111bf565b60008484015250505050565b60006111f1826111a0565b6111fb81856111ab565b935061120b8185602086016111bc565b61121481610dd3565b840191505092915050565b60006040820190506112346000830185611191565b818103602083015261124681846111e6565b90509392505050565b60006020828403121561126557611264610d98565b5b600061127384828501610db9565b91505092915050565b6000604082019050611291600083018561105d565b61129e602083018461105d565b9392505050565b60006060820190506112ba6000830186610cd2565b6112c76020830185610cd2565b6112d46040830184610cd2565b949350505050565b6000819050919050565b6112ef816112dc565b82525050565b600067ffffffffffffffff82169050919050565b611312816112f5565b82525050565b600061ffff82169050919050565b61132f81611318565b82525050565b600063ffffffff82169050919050565b61134e81611335565b82525050565b600060a08201905061136960008301886112e6565b6113766020830187611309565b6113836040830186611326565b6113906060830185611345565b61139d6080830184611345565b9695505050505050565b6000815190506113b681610da2565b92915050565b6000602082840312156113d2576113d1610d98565b5b60006113e0848285016113a7565b91505092915050565b7f4e487b7100000000000000000000000000000000000000000000000000000000600052601160045260246000fd5b600061142382610cc8565b915061142e83610cc8565b9250828203905081811115611446576114456113e9565b5b92915050565b7f4e487b7100000000000000000000000000000000000000000000000000000000600052603260045260246000fd5b7f4e487b7100000000000000000000000000000000000000000000000000000000600052601260045260246000fd5b60006114b582610cc8565b91506114c083610cc8565b9250826114d0576114cf61147b565b5b828206905092915050565b600081905092915050565b50565b60006114f66000836114db565b9150611501826114e6565b600082019050919050565b6000611517826114e9565b9150819050919050565b600061152c82610cc8565b915061153783610cc8565b925082820261154581610cc8565b9150828204841483151761155c5761155b6113e9565b5b5092915050565b600061156e82610cc8565b915061157983610cc8565b9250826115895761158861147b565b5b82820490509291505056fea264697066735822122099e0b6cf007c6c766c47e3f0ea0470322dc2cd95e6c91d6536d8abf560b3829564736f6c63430008120033",
  "devdoc": {
    "author": "Alex Shogenov <alex@shogenov.com>",
    "details": "Implements VRFConsumerBaseV2 and Chainlink keepers",
    "kind": "dev",
    "methods": {
      "checkUpkeep(bytes)": {
        "details": "This is the function that the Chainlink Keeper nodes call they look for `upkeepNeeded` to return True. the following should be true for this to return true: 1. The time interval has passed between raffle runs. 2. The lottery is open. 3. The contract has ETH. 4. Implicity, your subscription is funded with LINK."
      }
    },
    "title": "Raffle Contract with organizer fee",
    "version": 1
  },
  "userdoc": {
    "kind": "user",
    "methods": {},
    "version": 1
  },
  "storageLayout": {
    "storage": [
      {
        "astId": 1167,
        "contract": "contracts/Raffle.sol:Raffle",
        "label": "players",
        "offset": 0,
        "slot": "0",
        "type": "t_array(t_address_payable)dyn_storage"
      },
      {
        "astId": 1178,
        "contract": "contracts/Raffle.sol:Raffle",
        "label": "recentWinner",
        "offset": 0,
        "slot": "1",
        "type": "t_address"
      },
      {
        "astId": 1181,
        "contract": "contracts/Raffle.sol:Raffle",
        "label": "state",
        "offset": 20,
        "slot": "1",
        "type": "t_enum(State)1162"
      },
      {
        "astId": 1183,
        "contract": "contracts/Raffle.sol:Raffle",
        "label": "lastTimestamp",
        "offset": 0,
        "slot": "2",
        "type": "t_uint256"
      }
    ],
    "types": {
      "t_address": {
        "encoding": "inplace",
        "label": "address",
        "numberOfBytes": "20"
      },
      "t_address_payable": {
        "encoding": "inplace",
        "label": "address payable",
        "numberOfBytes": "20"
      },
      "t_array(t_address_payable)dyn_storage": {
        "base": "t_address_payable",
        "encoding": "dynamic_array",
        "label": "address payable[]",
        "numberOfBytes": "32"
      },
      "t_enum(State)1162": {
        "encoding": "inplace",
        "label": "enum Raffle.State",
        "numberOfBytes": "1"
      },
      "t_uint256": {
        "encoding": "inplace",
        "label": "uint256",
        "numberOfBytes": "32"
      }
    }
  }
}